{
  "contractName": "Coin",
  "abi": [
    {
      "inputs": [
        {
          "internalType": "uint256",
          "name": "",
          "type": "uint256"
        }
      ],
      "name": "players",
      "outputs": [
        {
          "internalType": "address",
          "name": "p_hash",
          "type": "address"
        },
        {
          "internalType": "uint256",
          "name": "time",
          "type": "uint256"
        },
        {
          "internalType": "uint256",
          "name": "tax",
          "type": "uint256"
        },
        {
          "internalType": "bool",
          "name": "winner_state",
          "type": "bool"
        }
      ],
      "stateMutability": "view",
      "type": "function",
      "constant": true
    },
    {
      "inputs": [],
      "name": "random",
      "outputs": [
        {
          "internalType": "uint256",
          "name": "",
          "type": "uint256"
        }
      ],
      "stateMutability": "view",
      "type": "function",
      "constant": true
    },
    {
      "inputs": [
        {
          "internalType": "bool",
          "name": "coinState",
          "type": "bool"
        }
      ],
      "name": "play",
      "outputs": [
        {
          "internalType": "bool",
          "name": "",
          "type": "bool"
        }
      ],
      "stateMutability": "payable",
      "type": "function",
      "payable": true
    },
    {
      "inputs": [],
      "name": "getBalance",
      "outputs": [
        {
          "internalType": "uint256",
          "name": "",
          "type": "uint256"
        }
      ],
      "stateMutability": "view",
      "type": "function",
      "constant": true
    },
    {
      "inputs": [],
      "name": "getPlayersCount",
      "outputs": [
        {
          "internalType": "uint256",
          "name": "count",
          "type": "uint256"
        }
      ],
      "stateMutability": "view",
      "type": "function",
      "constant": true
    },
    {
      "inputs": [],
      "name": "payPoolContract",
      "outputs": [],
      "stateMutability": "payable",
      "type": "function",
      "payable": true
    }
  ],
  "bytecode": "0x60806040526040516100109061007f565b604051809103906000f08015801561002c573d6000803e3d6000fd5b50600160006101000a81548173ffffffffffffffffffffffffffffffffffffffff021916908373ffffffffffffffffffffffffffffffffffffffff16021790555034801561007957600080fd5b5061008c565b61016b80610ba183390190565b610b068061009b6000396000f3fe6080604052600436106100555760003560e01c806312065fe01461005a5780635ec01e4d14610085578063a76594bf146100b0578063c23c87d5146100db578063cd2b65a814610121578063f71d96cb1461012b575b600080fd5b34801561006657600080fd5b5061006f6101a7565b6040518082815260200191505060405180910390f35b34801561009157600080fd5b5061009a610251565b6040518082815260200191505060405180910390f35b3480156100bc57600080fd5b506100c5610324565b6040518082815260200191505060405180910390f35b610109600480360360208110156100f157600080fd5b81019080803515159060200190929190505050610330565b60405180821515815260200191505060405180910390f35b6101296108e1565b005b34801561013757600080fd5b506101646004803603602081101561014e57600080fd5b81019080803590602001909291905050506109a5565b604051808573ffffffffffffffffffffffffffffffffffffffff168152602001848152602001838152602001821515815260200194505050505060405180910390f35b6000600160009054906101000a900473ffffffffffffffffffffffffffffffffffffffff1673ffffffffffffffffffffffffffffffffffffffff166312065fe06040518163ffffffff1660e01b815260040160206040518083038186803b15801561021157600080fd5b505afa158015610225573d6000803e3d6000fd5b505050506040513d602081101561023b57600080fd5b8101908080519060200190929190505050905090565b600080610100905060006064423384604051602001808481526020018373ffffffffffffffffffffffffffffffffffffffff1660601b815260140182815260200193505050506040516020818303038152906040528051906020012060001c816102b757fe5b06905060006064423384604051602001808481526020018373ffffffffffffffffffffffffffffffffffffffff1660601b815260140182815260200193505050506040516020818303038152906040528051906020012060001c8161031857fe5b06905080935050505090565b60008080549050905090565b600080600160009054906101000a900473ffffffffffffffffffffffffffffffffffffffff1673ffffffffffffffffffffffffffffffffffffffff166312065fe06040518163ffffffff1660e01b815260040160206040518083038186803b15801561039b57600080fd5b505afa1580156103af573d6000803e3d6000fd5b505050506040513d60208110156103c557600080fd5b810190808051906020019092919050505011610449576040517f08c379a000000000000000000000000000000000000000000000000000000000815260040180806020018281038252600e8152602001807f506f6f6c20697320656d7074792100000000000000000000000000000000000081525060200191505060405180910390fd5b346032600160009054906101000a900473ffffffffffffffffffffffffffffffffffffffff1673ffffffffffffffffffffffffffffffffffffffff166312065fe06040518163ffffffff1660e01b815260040160206040518083038186803b1580156104b457600080fd5b505afa1580156104c8573d6000803e3d6000fd5b505050506040513d60208110156104de57600080fd5b8101908080519060200190929190505050816104f657fe5b041161056a576040517f08c379a00000000000000000000000000000000000000000000000000000000081526004018080602001828103825260148152602001807f596f75722062657420697320746f6f206269672100000000000000000000000081525060200191505060405180910390fd5b600034116105e0576040517f08c379a000000000000000000000000000000000000000000000000000000000815260040180806020018281038252601f8152602001807f596f7572206265742073686f756c64206265206d6f7265207468616e2030210081525060200191505060405180910390fd5b8115156105eb610a12565b1515141561078c57600160009054906101000a900473ffffffffffffffffffffffffffffffffffffffff1673ffffffffffffffffffffffffffffffffffffffff166331cbf5e334336040518363ffffffff1660e01b8152600401808381526020018273ffffffffffffffffffffffffffffffffffffffff16815260200192505050600060405180830381600087803b15801561068657600080fd5b505af115801561069a573d6000803e3d6000fd5b50505050600060405180608001604052803273ffffffffffffffffffffffffffffffffffffffff16815260200142815260200160023402815260200160011515815250908060018154018082558091505060019003906000526020600020906004020160009091909190915060008201518160000160006101000a81548173ffffffffffffffffffffffffffffffffffffffff021916908373ffffffffffffffffffffffffffffffffffffffff160217905550602082015181600101556040820151816002015560608201518160030160006101000a81548160ff0219169083151502179055505050600190506108dc565b600160009054906101000a900473ffffffffffffffffffffffffffffffffffffffff1673ffffffffffffffffffffffffffffffffffffffff166108fc349081150290604051600060405180830381858888f193505050501580156107f4573d6000803e3d6000fd5b50600060405180608001604052803273ffffffffffffffffffffffffffffffffffffffff16815260200142815260200134815260200160001515815250908060018154018082558091505060019003906000526020600020906004020160009091909190915060008201518160000160006101000a81548173ffffffffffffffffffffffffffffffffffffffff021916908373ffffffffffffffffffffffffffffffffffffffff160217905550602082015181600101556040820151816002015560608201518160030160006101000a81548160ff0219169083151502179055505050600090505b919050565b6000341161093a576040517f08c379a0000000000000000000000000000000000000000000000000000000008152600401808060200182810382526023815260200180610aae6023913960400191505060405180910390fd5b600160009054906101000a900473ffffffffffffffffffffffffffffffffffffffff1673ffffffffffffffffffffffffffffffffffffffff166108fc349081150290604051600060405180830381858888f193505050501580156109a2573d6000803e3d6000fd5b50565b600081815481106109b557600080fd5b90600052602060002090600402016000915090508060000160009054906101000a900473ffffffffffffffffffffffffffffffffffffffff16908060010154908060020154908060030160009054906101000a900460ff16905084565b600060323073ffffffffffffffffffffffffffffffffffffffff16635ec01e4d6040518163ffffffff1660e01b815260040160206040518083038186803b158015610a5c57600080fd5b505afa158015610a70573d6000803e3d6000fd5b505050506040513d6020811015610a8657600080fd5b810190808051906020019092919050505010610aa55760019050610aaa565b600090505b9056fe5472616e73666572206265742073686f756c64206265206d6f7265207468616e203021a26469706673582212208719404462595568cd0471e581d3cad44c7c0e9f292adaf893f86bd9f3ab365064736f6c63430007060033608060405234801561001057600080fd5b5061014b806100206000396000f3fe60806040526004361061002d5760003560e01c806312065fe01461003957806331cbf5e31461006457610034565b3661003457005b600080fd5b34801561004557600080fd5b5061004e6100bf565b6040518082815260200191505060405180910390f35b34801561007057600080fd5b506100bd6004803603604081101561008757600080fd5b8101908080359060200190929190803573ffffffffffffffffffffffffffffffffffffffff1690602001909291905050506100c7565b005b600047905090565b8073ffffffffffffffffffffffffffffffffffffffff166108fc600284029081150290604051600060405180830381858888f19350505050158015610110573d6000803e3d6000fd5b50505056fea2646970667358221220b9869392a5c57c2d0a1ee8a59c15ce407b4f7e50a46cce0ad3784221ce18b46664736f6c63430007060033",
  "immutableReferences": {},
  "source": "// SPDX-License-Identifier: GPL-3.0\n\npragma solidity >=0.5.0 <0.9.0;\n\nimport \"./Pool.sol\";\n\ncontract Coin {\n    \n\n    struct Info {\n        address p_hash;\n        uint256 time;\n        uint256 tax;\n        bool winner_state;\n    }\n    Info []  public players;\n\n\n\n    Pool   pool = new Pool();\n\n    function random() public view returns (uint) {\n        // return  uint(keccak256(abi.encodePacked(block.timestamp, block.difficulty))) % 100;\n\n        uint randNonce = 256;\n        uint random = uint(keccak256(abi.encodePacked(block.timestamp, msg.sender, randNonce))) % 100;\n        uint random2 = uint(keccak256(abi.encodePacked(block.timestamp, msg.sender, random))) % 100;\n        return random2;\n    }\n\n    function shake() internal view returns(bool){\n        if(this.random()>=50)\n        {\n            return true;\n        }\n        else{\n            return false;\n        }\n    }\n\n\n    function play(bool coinState) public payable returns(bool){\n       require(pool.getBalance()>0,\"Pool is empty!\");\n       require(pool.getBalance()/50>msg.value,\"Your bet is too big!\");\n       require(msg.value>0,\"Your bet should be more than 0!\");\n        if(shake()==coinState) {\n             pool.pay(msg.value,payable(msg.sender));\n            players.push(Info(tx.origin,block.timestamp,msg.value*2,true));\n            return true;\n        }\n        else\n        {\n            payable(address(pool)).transfer(msg.value);\n            players.push(Info(tx.origin,block.timestamp,msg.value,false));\n            return false;\n        } \n    }\n\n      function getBalance() public view returns(uint256){\n        return pool.getBalance();\n    }\n    \n    function getPlayersCount() public view returns(uint count) {\n        return players.length;\n    }\n    \n    function payPoolContract() public payable {\n        require(msg.value>0,\"Transfer bet should be more than 0!\");\n         payable(address(pool)).transfer(msg.value);\n    }\n}\n",
  "sourcePath": "/home/mikesb/Рабочий стол/coin_sol/contracts/Coin.sol",
  "compiler": {
    "name": "solc",
    "version": "0.7.6+commit.7338295f.Emscripten.clang"
  },
  "schemaVersion": "3.4.4",
  "updatedAt": "2022-02-17T01:29:20.164Z",
  "networkType": "ethereum",
  "devdoc": {
    "kind": "dev",
    "methods": {},
    "version": 1
  },
  "userdoc": {
    "kind": "user",
    "methods": {},
    "version": 1
  }
}