{
  "contractName": "Pool",
  "abi": [
    {
      "stateMutability": "payable",
      "type": "receive",
      "payable": true
    },
    {
      "inputs": [],
      "name": "getBalance",
      "outputs": [
        {
          "internalType": "uint256",
          "name": "",
          "type": "uint256"
        }
      ],
      "stateMutability": "view",
      "type": "function",
      "constant": true
    },
    {
      "inputs": [
        {
          "internalType": "uint256",
          "name": "payment",
          "type": "uint256"
        },
        {
          "internalType": "address payable",
          "name": "winner",
          "type": "address"
        }
      ],
      "name": "pay",
      "outputs": [],
      "stateMutability": "nonpayable",
      "type": "function"
    }
  ],
  "bytecode": "0x608060405234801561001057600080fd5b5061014b806100206000396000f3fe60806040526004361061002d5760003560e01c806312065fe01461003957806331cbf5e31461006457610034565b3661003457005b600080fd5b34801561004557600080fd5b5061004e6100bf565b6040518082815260200191505060405180910390f35b34801561007057600080fd5b506100bd6004803603604081101561008757600080fd5b8101908080359060200190929190803573ffffffffffffffffffffffffffffffffffffffff1690602001909291905050506100c7565b005b600047905090565b8073ffffffffffffffffffffffffffffffffffffffff166108fc600284029081150290604051600060405180830381858888f19350505050158015610110573d6000803e3d6000fd5b50505056fea2646970667358221220b9869392a5c57c2d0a1ee8a59c15ce407b4f7e50a46cce0ad3784221ce18b46664736f6c63430007060033",
  "immutableReferences": {},
  "source": "// SPDX-License-Identifier: GPL-3.0\n\npragma solidity >=0.5.0 <0.9.0;\n\n\ncontract Pool {\n\n    receive() external payable {\n\n    }\n\n    function getBalance()  public view returns(uint256){\n        return address(this).balance;\n    }\n\n    function pay(uint256 payment, address payable winner) public {\n        winner.transfer(payment*2);\n    }\n\n  \n}",
  "sourcePath": "/home/mikesb/Рабочий стол/coin_sol/contracts/Pool.sol",
  "compiler": {
    "name": "solc",
    "version": "0.7.6+commit.7338295f.Emscripten.clang"
  },
  "schemaVersion": "3.4.4",
  "updatedAt": "2022-02-17T01:29:20.175Z",
  "networkType": "ethereum",
  "devdoc": {
    "kind": "dev",
    "methods": {},
    "version": 1
  },
  "userdoc": {
    "kind": "user",
    "methods": {},
    "version": 1
  }
}